HEBV03P201201060001      AA3Q01234500                                          
HEH1234567890  19830101*0070249HCPP      4310            YHOP                  
HETH103A  0035650120111121823            F075A  0108600120111121823            
HEH1234567891  19350101*0663875HCPP      4310             HOP                  
HETH123A  0065950120111230038                                                  
HEH1234567892Q 19270101*1371219HCPP0886104310             HOP                  
HETH065A  0074250120111230569                                                  
HEH1234567893  19310101*1376662HCPP      4310             HOP                  
HETH123A  0065950120111230847                                                  
HEH1234567894NY19920101*1498883HCPP1042814310             HOP                  
HETE400C  0060040820111230682            Z102C  0120080820111230682            
HEE0016000000016                                                               
